:040000006F105063CA
:100004000000000000000000080200000A020000D6
:1000140000000000321E000000000000000000008C
:10002400321E0000321E000000000000000000002C
:10003400321E000000000000321E0000000000001C
:10004400321E0000321E0000321E000000000000BC
:10005400180B0000321E0000321E0000321E000089
:10006400321E0000321E0000321E0000321E00004C
:10007400321E0000321E0000321E0000321E00003C
:10008400321E0000321E0000321E00003411000037
:10009400321E0000321E0000321E0000EA0C000076
:1000A400321E0000321E0000321E00009A0E0000B4
:1000B400321E0000321E0000321E0000321E0000FC
:1000C400321E0000321E0000321E0000321E0000EC
:1000D400321E0000321E0000321E0000000000002C
:1000E400000000000000000000000000000000000C
:0C00F40000000000000000000000000000
:10010000397101436EC619A0397141536AC866CA74
:1001100062CC5ECE19A0397101535AD056D252D456
:100120004ED64AD826DA22DC06DE330161408282CE
:1001300041114AC026C222C406C68282B24D410184
:10014000024D924C224CB24B4101024B924A224A40
:10015000B2494101024992442244B24041018280A5
:100160003D432A876373C3029377F700BDEFADE584
:10017000937606FF3D8ABA960CC34CC30CC74CC796
:100180004107E36BD7FE11E28280B306C3408A06C3
:100190009702000096966780A6002307B700A30683
:1001A000B7002306B700A305B7002305B700A304D3
:1001B000B7002304B700A303B7002303B700A302CB
:1001C000B7002302B700A301B7002301B700A300C3
:1001D000B7002300B700828093F5F50F9396850052
:1001E000D58D93960501D58D61B79396270097021B
:1001F000000096968682E78086FA9680C1171D8F4A
:100200003E96E374C3F8A5B701A0B707EFBE37E782
:1002100000E0938707083CC701A0EFF27FF1AA84B2
:10022000EF30500AB54763FBA7028386040013072B
:10023000400281476392E602370400201304041F42
:100240000C402685EF30B00B854719E54C402685DC
:10025000EF30F00AB337A0003E85EDBD8147EDBF1A
:10026000EFF21FEDB79700002E8483A587AD2A8992
:100270006D98EF202075EF30800AAA8413054006A0
:100280003385A402EF302015AA854A85EF20B050AF
:10029000B797000083A5C7ADEF20C0722A892685D5
:1002A000EF306013AA854A85EF20203B9307300585
:1002B0006315F400B70700803D8D69BDEFF2DFE400
:1002C0009305C0022A84EF30607D25C99304150090
:1002D0009305A0022285EF30607C2A8A7D55630B4E
:1002E0000A041385818C1306001E8145953D7D54BB
:1002F000D14B9389818C9305C0022685EF30007A1B
:100300002A89054B19E15289014B33069940930A1A
:100310001400635BC00063D3CB004D4633857A0382
:10032000A6854E95EF3040459304190063150B00E8
:100330001305240031B556847DBF7D55E5BF1821D6
:10034000A546930707FD93F7F70F63E3F602E2076D
:10035000E1871831A546130507FD1375F50F63ED09
:10036000A6026205618592075D8D1375F50F828087
:100370009307F7FB93F7F70F15466365F6009307AE
:1003800097FCF1B79306F7F993F6F60F8147E3620E
:10039000D6FC930797FA65BF9306F7FB93F6F60F23
:1003A0001546130597FCE37ED6FA9306F7F993F604
:1003B000F60F0145E369D6FA130597FA5DB7EFF238
:1003C0009FD5B70400209384041F8C400111194667
:1003D0002A84EF30407005CDCC4019462285EF309D
:1003E000806F814715E105499305A00222852316F8
:1003F0000100EF30A06AAA8409ED83D7418593E715
:100400000708239AF18481473E8505613DBB014978
:10041000E1BF1C315C863C216800DC860D37AA896F
:10042000930540022285EF306067814711C90505B9
:100430006378950005050347F5FFB98FE39CA4FE9B
:10044000E39D37FB83D7418513F7070809C793F767
:10045000F7F7239AF184228595356349A00083D765
:10046000418593E70702239AF18471BF02C802CA4B
:1004700002CC02CE9384818C6317090883C701855F
:1004800091CB37960000A286130606A58545014547
:10049000EF0090688387840791CB13858407EF3042
:1004A000A02A93878188AAAF4181CAAF8387040AB3
:1004B00081CF1385040AEF30C028EF30000B13847E
:1004C00081886AAC41810AB08387440B99C3238534
:1004D000F18A8387840C95C71385840CEF306026DE
:1004E000EF30A0081384818893578500A301A402EC
:1004F0002302F402935705016181A302F40223034E
:10050000A402854711B783C7218591CB3796000098
:10051000A286130606A585450145EF00F05F838797
:1005200004001384818881CB1385818CEF30602196
:10053000EF30A00348C88387440199C3A303F402A2
:100540000307740293071004138911856311F714CC
:1005500085472300F9002308F4028387840281CBB6
:1005600013858402EF30E01DEF30200008C8838738
:10057000C40391C31CAC8387040581CB1385040598
:10058000EF30201CEF20707E48C48387440691C35F
:100590001CBC8387840781CB13858407EF30601AE6
:1005A000EF20B07C08D48387C40881CB1385C408AE
:1005B000EF302019EF20707B48D41385040AEF3008
:1005C000605099476311F50483D7040A0808FC803A
:1005D000EF30001883D7240A230AA4020808FC80FD
:1005E000EF30001783D7440AA309A4020808FC804F
:1005F000EF3000161305057D42054181A308A402D2
:1006000021812309A4021385818CEF30A04B9547EB
:1006100063F4A7069E200808FC80EF306013BE201C
:10062000A30AA4020808FC80EF308012DE20230B0E
:10063000A4020808FC80EF30A011A30BA4029305CC
:10064000E0021385818CEF30604511C50505EF3060
:100650002010230EA402130514035122834709001E
:1006600008DC99CB83C7C18681EB85472386F18659
:1006700023ACA1802380F182830584010848CD3614
:1006800048C0830594014844E13E08C09DBD230055
:10069000090023080402D1B5EFF29FA90111AE842D
:1006A00063840510138481881C58034774038348AE
:1006B0006403A1830348540383464403105C3AC097
:1006C000C20703473403C183B795000093870783AC
:1006D000938545A5268502CC02CEEF30E035484013
:1006E0002C08F1202685EF30E03DF2466246B795B2
:1006F0000000938585A82695EF30003408402C082B
:100700007D202685EF30003C584CC1671389F7FFE8
:10071000362C337727014207558F6246F246B7954C
:100720000000938545A92695EF3000311C506A2CB6
:100730002C08B3F72701C2075D8D95282685EF3079
:100740006038F246E1679387076AB3D6F6026246DD
:10075000B7950000938585AA269509691309097143
:10076000EF30802D08542C0899202685EF308035F5
:10077000F2466246B7950000B3D62603938585AB53
:100780002695EF30602B48542C0815202685EF3035
:100790006033F2466246B7950000B3D626039385D0
:1007A00085AC2695EF3040292685056165B2EFF2CC
:1007B0003F982E84AA84EF20B03C08C0EF20104E52
:1007C000AA852685EF20207DB797000083A507C165
:1007D000EF202053EF20D03A48C06FF0BF97183178
:1007E0001C21342122075D8F8947303163E4D70013
:1007F000B1067D179307D016B307F702B705F5FFCB
:10080000938535592E96B29713562700B297130643
:1008100000193356C702B297130640063357C70272
:100820001306C003998F13079009B386E602154794
:10083000938676E3B3D6E602556713070718B69793
:10084000B387E70258218566938606E13307D7020E
:1008500054316821B386C60236973A953E95828018
:10086000556713070718B377E5028566938606E197
:1008700037480200130E18AB1303405B33D6D70280
:10088000B3F7D7029306C003D0A133D6D702B3F78C
:10089000D702D0B13355E502FCA1B7070B0093870F
:1008A000C7A625671306C7EA3E95B378C503930725
:1008B000001933D6C802B3D668024696158E930641
:1008C00008ABB3D6D8021308D0163355C503B30608
:1008D000D64033D606033305F502930747E9B3D76D
:1008E000F6023295B3D66602C69733060603958F95
:1008F000154893069009918F3386070385070906EB
:100900003357D602B306D7028906B3D60603958FAE
:10091000BCB19377F70F1307905F6362C7028D072F
:1009200093F7F70F4205BCA1094741816365F700C2
:1009300005054205418188A1218188B18280DD17AA
:10094000C5B7A30105002301050093064500014733
:10095000954513060002B307B7022380060005077A
:100960009506AA97A382070023830700A3830700A5
:1009700023840700E311C7FEA3000500054582801C
:100980002A869C2193F7F70FEDFFB42185479CA1A0
:100990009547B387F6020145AE970387470039E3D1
:1009A00003070600850693F6F60FD8A3282218320F
:1009B0002205598D38324207598D58226207498FD6
:1009C00013558700D8B3E8A3135507016183E8B333
:1009D00098A7FD4763EBD700B4A19C31030506003F
:1009E00085079CB123800500828023810500F5B72F
:1009F000EFF20FF49C21814493F7F70FC9E32E84A3
:100A0000AC311549B3852503B307B400838447008F
:100A1000BDC091051546A295EF201056383033071A
:100A20002703229774234833A206C98E68334205F0
:100A3000C98E08276205558D19CDEF2050533C30E3
:100A4000B3872703A297A382070023830700A3830A
:100A50000700238407003C3015473387E7022297BD
:100A60002302070063599000850793F7F70F7D472E
:100A7000636AF7003CB01C3099C3FD171CB0268593
:100A80006FF04FEDA3010400FDB7EFF2CFE87971ED
:100A9000854515453719014002CA02CC02CE02D065
:100AA00002D202D402D602C602C8EF10F00F894467
:100AB000930980024C081305098026CA4ECEEF1018
:100AC000C05E85450145EF10207A0544C1470810F6
:100AD0003ED426D022D602D2EF1000544C08130583
:100AE000098022CA4ECEEF10405C81450145EF10CF
:100AF000A077A147081022D03ED422D602D2EF1010
:100B0000A0519307401168007C86448722C8EF10EB
:100B1000E07845616FF06FE30111094522CE26CCE4
:100B20004ACAEF10005649C183C7D186ADE73715D1
:100B30000140894513050580EF100070A381A1864F
:100B400083C741862A84A1CB83C72186A9C7A5472D
:100B5000854505455C84A304010023050100A30528
:100B6000010023060100EF20303F19C9935785008B
:100B700000A1C8845C85935705016181DC854886A6
:100B8000938581B62800ED3B19E5938741859A232B
:100B9000136707019AA30945EF1080507244E2449D
:100BA00052490561730020300545EF10804D7DD519
:100BB00037150140854513050580EF10E067238058
:100BC000A18683C7A1851384A185B9CB31C903C789
:100BD000D1861389D1869384418629C7EF10800F6F
:100BE0009C2095C7B147938581B628005C84A304F7
:100BF000010023050100A30501002306010049337C
:100C000019E5938741859A23136707019AA3230067
:100C1000090083A7818623000400890723AEF1849D
:100C200005459DBF9C20F5D7AD47938581B628002B
:100C30005C84A304010023050100A3050100230631
:100C400001003D3B79F5938741859A23136707019E
:100C50009AA3C1B7EFF2CFCD011102C802CA02CCEC
:100C600002CEB7170240984FB70602003714014072
:100C70001367470098CFD84F2A89E144558FD8CFC2
:100C800091473EC24C008547130504803EC426C6EA
:100C9000EF10A041A1474C00130504803EC2374429
:100CA000004026C6EF106040B7070C000C08130583
:100CB00004403ECC4AC802CA231E0100EF10807EC9
:100CC00005461305044093055052EF101008B7E78E
:100CD00000E01307000823A2E71085451305044030
:100CE000EF10500505616FF0EFC6797122D63744D9
:100CF0000040930500021305044026D44AD2EF10A9
:100D000030096305050E13050440EF10F0079386C4
:100D100081859C229384818593F7F70F13871700B1
:100D20001377F70F98A2138781AEBA9788A313752C
:100D3000F50FA947631CF50A9C20F91793F7F70FE5
:100D40009CA09C203E9783C7D18623000700D1E753
:100D500083C74186D9C383C72186C1C3138581AEAA
:100D6000EF205056B9472A8963F9A706138581AE4B
:100D7000EFF0AFCA3DC113061900A147B285054582
:100D8000230CF100A30C0100230D0100A30D0100B1
:100D9000230E010032C6EF20301C2A8905C53246D9
:100DA000938581AEEF20501D93578900A30C21013C
:100DB000230DF1009357090113598901A30DF10087
:100DC000230E2101938581B628085D3E19E593879E
:100DD00041859A23136707019AA3130600088145EA
:100DE000138581AE23800400EFF08FB73254A254F4
:100DF0001259456173002030EFF28FB3011102C820
:100E000002CA02CC02CEB7170240984FB7060800BC
:100E1000371401401367870098CFD84F2A89E144DF
:100E2000558FD8CF370701405C439D664C00D58F66
:100E30005CC3130504C085473EC23EC426C6EF10FE
:100E4000C02689474C00130504C03EC237540040F9
:100E500026C6EF108025B7070C000C08130504C048
:100E60003ECC4AC802CA231E0100EF10A06305460B
:100E7000130504C093055052EF10206D856737E7C6
:100E800000E0938707802322F7108545130504C0EF
:100E9000EF10406A05616FF0EFAB797152CE375AAF
:100EA00000409305000213050AC022D626D44AD278
:100EB0004ED0EF10E06D6309050E13050AC0EF1068
:100EC000A06C138471851820938781AA3E9793792B
:100ED000F50F23003701182013050AC01389718507
:100EE000BA978C23EF10C0691C20138781AA85074D
:100EF00093F7F70F1CA0A9476386F900B547014493
:100F00006398F90683470900B7950000938545B3B8
:100F1000850793F7F70F2300F900138581AABA9785
:100F200023800700EF20B03D354415E9B795000058
:100F30009385C5B3138581AAEF20703C054405E174
:100F4000B7950000938505B4138581AAEF20303B47
:100F50003DC503C721852DE32389818415441306EC
:100F600000048145138581AA23000900EFF04F9FFB
:100F700083C7D18695EB83C741869DC715C49385EA
:100F800081B628004084A304010023050100A305C5
:100F9000010023060100EFF0BF9E19E5938741850C
:100FA0009A23136707019AA33254A2541259825903
:100FB000724A4561730020302389018445B7B79593
:100FC0000000938545B4138581AAEF20503319C9D9
:100FD00003C7018509E723888184194449B7238819
:100FE0000184E5BFB7950000938585B4138581AA78
:100FF000EF20F030114425F5B7950000938505B535
:10100000138581AAEF20B02F1D4431F9B795000058
:10101000938545B5138581AAEF20702E394421D1DF
:101020009305D003138581AAEF2050270D4405D9DD
:101030000505EF20E07123ACA18005472380E18204
:10104000014431BFEFF2CF8EB71602409C4E0567C8
:10105000011113070780D98F231C0100231E0100F3
:1010600002C602C8231B0100231D01009CCE83D7AA
:101070000181373401404C08FC8483D7E18113059A
:1010800004C0930404C0FC8293072003230EF100E4
:10109000EF10A039F9572318F4C0930730027C866B
:1010A00085475C87680085473EC8EF10201F83573F
:1010B000C4C093E717002316F4C0835704C093E716
:1010C00017002310F4C005616FF0CF88EFF24F8650
:1010D000B7170140938607C0411121476306D50029
:1010E00011476313F5004147B71602409C4ED98F54
:1010F0009CCEC1472EC23EC64C0085473EC4EF0081
:10110000D07A41016FF00F85EFF28F8203A5C18085
:1011100083D5818083C711861384118689CBEF1014
:1011200020131C2093C7F7FF1CA06FF0AF82EF10B5
:101130004011C5BF3735014001118545130505C074
:1011400022CEEF10E0338547631EF508753F138705
:10115000018214239387818699C683A68181230007
:101160000700850694C39843050798C303C74186C3
:101170001384418615CB83C7D1869DE78947938524
:1011800081B628005C84A304010023050100A305A7
:10119000010023060100EFF0AFFE19E593874185BA
:1011A0009A23136707019AA383C7C18185EF83C779
:1011B000D1868DCB1C209DC7B147938581B6280071
:1011C0005C84A304010023050100A305010023069C
:1011D0000100EFF0EFFA19E5938741859A23136731
:1011E00007019AA3373501408545130505C0EF1067
:1011F000A02A7244056173002030EFE27FF34111B1
:101200002E842C00B284EFF0AFE50348E1009C8609
:101210001886148590858DC02C84C2883E88BA8734
:1012200013870583B79500009385C5B52285EF2008
:10123000B00041016FE01FF2B79500009385C5B77C
:101240002285EF20607FF5B7EFE2FFECB717024091
:10125000984F056993064900558F98CF984F011113
:10126000371401401367870098CF8544930789841A
:10127000C1498A85130504C03EC04EC426C2EF0092
:10128000D062930700048A85130504803EC04EC4D3
:1012900026C2EF00906193070008E1498A85130593
:1012A00004803EC04EC426C2EF00306093070002A7
:1012B0008A85130504803EC04EC426C2EF00F05E4E
:1012C00093050980130504C0EF00B077130504C02F
:1012D000A145EF00F0771305048093050004EF00AB
:1012E0005076B7C7040102C83EC68947FC81B707DC
:1012F000000285076C00373501403ECA02CC231E30
:101300000100EF10200E373701401E2393E707043A
:101310001EA305616FE07FE35D714AD052CC2A893C
:101320002E8A0545930500404ECE06D622D426D2FD
:10133000B28936DEBAC0BEC2C2C4C6C6EF20C04142
:101340002DC52A84814463000A0203A581860146D3
:10135000A2856535B7950000AA84938585B222855C
:10136000EF20E0718D04630E09002285EF20807567
:10137000B79500004A869385C5B22295EF20C06BD1
:10138000AA949305004074184E86858D3305940009
:1013900036C6EF30A06237950000A2851305C5C49C
:1013A000EF20C0622285EF20803CB250225492543C
:1013B0000259F249624A61618280EFE27FD7EF0011
:1013C0001045B70757031375F5F09387176063034C
:1013D000F50663EAA702B707510393871760630016
:1013E000F506B707560393871760630FF504B70731
:1013F000500393871760630EF504379500001305BB
:1014000085B96FE03FD5B7075B0393871760630724
:10141000F504B7075E03938717606306F504B70703
:101420005A0393871760E31AF5FC379500001305FC
:1014300005BFC1BF37950000130505BED9B7379565
:101440000000130505C075BF37950000130505BCE6
:101450004DBF37950000130505BA65B737950000F5
:10146000130505BD79BF37950000130505BB51BFB6
:10147000EFE21FCC83A68182411136C63D3F03A80F
:10148000818683A84181B24683A7C1823796000036
:101490002A87130686D385450145BD3D41016FE08E
:1014A0007FCBEFE2FFC549710545EF00D05EEF004D
:1014B000900683D5818003A5C180EFF03FC1EF1076
:1014C000C00D138581B6EFF0CFC72382A186EFF060
:1014D0007FB7716513050520EFF01F92EFF0EFDA8B
:1014E000096513050558EFF0EFF6EF007006EF0001
:1014F000B00A1305C05DEF10A00C9D3FB133294524
:10150000EF10000CEF00C06813052003EF10400B34
:1015100003A64182B79900009385C9C41385C1C051
:10152000EF208051EF00E06C83C69185AA851146BB
:101530001385C1C0EF00C06D1306000C814508196A
:10154000EFE01FC21306000881450818EFE05FC1F5
:10155000EFF0AFD32945EF10A0068547238DF18426
:101560002381F186938741863EC6938741823EC898
:10157000B797000003AD47C1B797000083AD87C19F
:1015800083A74184A56CA386018602D023020102B1
:10159000054C814B4ECA13849185938AA18513898A
:1015A000D186938C0CAF3ECCB247938941859C2366
:1015B0009DCF938581B60810EFF08FC39387618527
:1015C0001375F50F88A39C233547FD1793F7F70F85
:1015D000636FF7008A07E6979C43828783A6418161
:1015E000379600001306C6C28545014535339387FB
:1015F000C185984311C723A0070085472380FA00BF
:1016000083D60900B1C203A74181379600001306B3
:1016100046D18545014509330C201145892903D65A
:101620000900B79500009385C5D21385C1C0EF208E
:10163000A040EF00005C1420AA8511461385C1C0AC
:10164000EF00005D239009000545EF007077A9BF0A
:10165000612103A7418137960000130606C4BA86AC
:1016600085450145553913054006EF007075B707EC
:10167000EFBE37E700E0938707083CC78DBF85477B
:10168000938581B628102304F102A30401022305E7
:101690000102A305010223060102EFF06FAE21F95A
:1016A00083D7090093E707012390F90089B7014523
:1016B000238E0180592E854785453705001023006C
:1016C000F900EF0050508347090099EFB7950000EB
:1016D000938545C237950000130505C5EF20002FFF
:1016E0000545EF00F04021B7B79500009385C5C1CF
:1016F000D5B705470545238EE180812E13054006A9
:10170000EF00106CB795000037950000938545C237
:10171000130585C723000900EF20402BC9BD138B9B
:10172000C1C0930700022300FB0003A58186050BBF
:101730000146DA85EFF07FAC3D47AA87634CA700EE
:10174000B79500002ACE938505565A85EF202033A1
:10175000F24785073E85712914200546AA85138521
:10176000C1C07D211145EF00A069EF103053EA851B
:10177000EF102059EE85EF10E024E24523AAA18660
:10178000EF10604F635505040545EF00C05FE300AF
:101790000CE603A541872C1002D402D6EFF02F816E
:1017A000102091450945912EB2569307803E22564E
:1017B000B3D6F602B7950000938505CA0818EF2046
:1017C000A027052914201146AA85081895A00145CF
:1017D0006DBF03A541872C1002D402D6EFE03FFD78
:1017E0003257A25637960000130606CB85450145B1
:1017F000EFF09FB2EDBB83A681863796000003A76A
:101800004181130606CCDDB705472386E186C5B3C3
:101810008531C2471385C1C09043D2479385C7C461
:10182000EF208021F92614201146AA851385C1C016
:10183000C52675BB025593578500034541026205D5
:101840005D8DE30605DAEF10907255B3834709000A
:10185000E39F07D8025B93578B00034B4102620B57
:10186000336BFB0063040B12DA850819EF20802428
:101870005A85EF10D06F0819EFE07FB4E30905D661
:1018800063860B1203CC1185814BE3020CD603A5B2
:1018900081860C19EFE05FE003A7418137960000D5
:1018A000AA861306C6CC85450145EFF0FFA6138B2B
:1018B000818802D402D603455B0083474B002C107D
:1018C00022055D8D83476B00C207C98F03457B00EE
:1018D00062055D8DEFE0BFEDB2562256B795000070
:1018E000938545CD0818EF20201503C5918883C73F
:1018F00081882C1022055D8D83C7A188C207C98FFE
:1019000003C5B18862055D8DEFE07FEA0818EF201E
:10191000601BB25622561C18B7950000938585CEE1
:101920003E95EF2060110345FB018347EB012C102E
:1019300022055D8D83470B02C207C98F03451B0239
:1019400062055D8DEFE0BFE60818EF20A0170346A3
:10195000BB018347AB01A25622065D8E8347CB01B4
:10196000B79500009385C5CFC207D18F0346DB0131
:1019700062065D8E1C183E95EF20000C10209145EC
:101980000945A52A14200946854581B50C200D4539
:10199000F928B79500009385C5D01385C1C0EF2005
:1019A00060111945B92414200D4641B5854B81B10C
:1019B000EFE20FF8371401408565130504C09385E5
:1019C0000580EF0010089305000413050480EF0064
:1019D00030080545EF00D03E930500041305048050
:1019E000EF0030060545EF00B03D6FE0AFF6EFE2E7
:1019F0008FF2371901402E84856593850580AA8969
:101A0000130509C0B284EF00B004A145130509C055
:101A100063820902EF00D003A294631094028565EB
:101A20003715014093850580130505C0EF0070014F
:101A30006FE0AFF1EF00F000C5B705048345F4FF98
:101A400037350140EF00301DC9BFEFE26FEE33358F
:101A5000A00041111305E50A930700F8C8866C0041
:101A6000094605455C86613741016FE0AFEEEFE264
:101A70002FEC7D1541111375F50FB7077F22938762
:101A800017024886136505FB3EC448879D47AE8410
:101A9000054593050008DC86EF10104C23A8A186AD
:101AA00015C51384018799C4130600089305F00F28
:101AB000EFE00FEB1D462C000545153F0C4001459E
:101AC000130600082D370840EF10704A0545EF0057
:101AD000302F41016FE00FE8EFE28FE505449544B8
:101AE0002285050481451374F40F5137E31A94FEDF
:101AF0000545EF00F02C6FE0EFE5EFE26FE3B7078D
:101B00007F2201117D15938717021374F50F3ECCC8
:101B10009D47A30EF1002E89936704FB93050008EF
:101B2000054532C6230E8100230FF100EF10D0428D
:101B300023A8A1861DC132469384018719C61306C6
:101B400000089305F00FEFE0AFE17D191379F90F6D
:101B5000637B89008840EF1090410545EF005026D7
:101B600005616FE02FDF936704FB1D462C080545D8
:101B7000230E8100230FF100EFF07FE78C40130666
:101B8000000801450504EFF09FE61374F40FC9B790
:101B9000EFE20FDAB7D780A801119387E75A3EC268
:101BA000B7D700409387F7313EC4B717A1C89387D2
:101BB000D7483EC6B707818F9387A72D3EC8B7F792
:101BC000DB409387971D3ECAB727002E9387470AAD
:101BD0003ECCED77938767FAFC86EFF07FDD4C0013
:101BE00069460545EFF0BFE0C53D014505616FE081
:101BF0006FD61307F5FFB94763EAE700C14733859E
:101C0000A740058505051375F50F82800145828083
:101C1000EFE28FCF79717D161374F60F2EC6B68A58
:101C20002A8AEF10306AB2458567FC869307100256
:101C30002300F102FD1589678E059387F727A3001E
:101C4000B1022311F102AA899D4719460C100545DE
:101C50002569230F010002D402D623028102A302C8
:101C6000F1028144EFF0BFD8294B130909D8930B37
:101C7000F10263C5340145616FE08FCCB3079A0070
:101C8000838707006392670305041374F40F936757
:101C900004FB230FF1000D466C0805458504EFF0A9
:101CA0001FD593F4F40FF1B793F7F70F8E07CA9788
:101CB0009843DC433AD43ED6638A0A003C109833FA
:101CC00085071347F7FF98A3E39B77FF21462C1066
:101CD0000145E9B7B71702409843B70600F9938664
:101CE000F6F51367170098C3D84313670705D8C3E1
:101CF000D843758FD8C3372702401443F19A14C3D1
:101D0000144393E6260014C3D8431377F7F0D8C3DF
:101D1000D843D8C38280B7160240DC42918313F7C0
:101D2000F700B707002093870700BA979C23D44297
:101D30003777DC0293F7F70F130707C093F606080F
:101D40003356F70099E23356F70223A6C182828008
:101D5000EFE20FBE371702401C4F41114C0093E7D2
:101D600007011CCF91673EC2C1473EC637150140EF
:101D700085473EC41D2E0146916537150140D9297E
:101D800041016FE02FBDEFE2AFBA2A8691653715AA
:101D90000140C9216FE00FBCEFE28FB979711306E2
:101DA000000281450808EFE0AFBB854513054020E0
:101DB0003724014002C202C402C6FD2313050440B9
:101DC000CD45812437150140C1474C0013050580DE
:101DD0003EC202C6D92C854737070E000C081305F2
:101DE00004403ECC3ACE2302F10202C802CA02D01D
:101DF000E920854513050440212A45616FE08FB530
:101E0000EFE20FB337240140AA859D46054613052E
:101E100004401D2285451305044019229304044003
:101E200089452685D12A6DDD13050440D1226FE056
:101E30006FB201A097F1FF1F9381C1BB1731002042
:101E40001301411C178500001305858D97E5FF1FC1
:101E50009385451B1386018563FAC500832205001F
:101E600023A0550011059105E3EAC5FE1385018500
:101E7000938501C56377B500232005001105E36D47
:101E8000B5FEFD42739002BC8D4273904280930276
:101E900080087390023097E2FFFF9382E21693E28C
:101EA000320073905230EFF0FFE297F2FFFF93821F
:101EB000825F73901234730020305C413707F1E089
:101EC0001307F7EF944D7D8F9C41D58FD44DD58F5F
:101ED000D441A206D58FD98F5CC11C4537F7F1FFDD
:101EE0001307D77FD4457D8F9C49D58F94458606AF
:101EF000D58FD98F1CC55C55370710FF7D177D8F97
:101F0000DC29FD1793F7F70FD207D98F5CD58280B4
:101F10001C4589C593E717001CC58280F99BEDBF5E
:101F20001C4591C537075000D98F1CC582803707E3
:101F3000B0FF7D17F98FD5BFA54763F7B7048D476D
:101F4000138765FF3307F7020328C5009D47B39742
:101F5000E70093C7F7FFB3F70701B396E600DD8EFE
:101F600054C5994763E3C70495477D163306F602C7
:101F70005859FD47B397C70093C7F7FFF98F3396BA
:101F8000C5005D8E50D982800D473387E502032856
:101F900005019D47B397E70093C7F7FFB3F7070124
:101FA000B396E600DD8E14C96DBFB14763E2C70288
:101FB000954765163306F6021859FD47B397C700D3
:101FC00093C7F7FFF98F3396C5005D8E10D98280D5
:101FD00095474D163306F6025855FD47B397C7008F
:101FE00093C7F7FFF98FB395C500DD8D4CD582807F
:101FF000684542054181828008416D8D3335A000DE
:1020000082803C4993F707E0DD8D2CC98280B7F7C9
:10201000FF1F03A5477082805841032805004C45E7
:1020200037060140930706403E979346F8FFB1C537
:1020300083250640F58D2320B640D043F18ED4C3CE
:102040001443B3E6060114C3184190479346F7FFC3
:10205000758E90C7D047F18ED4C714454146639919
:10206000C6009447D98E94C7D447558FD8C782806D
:10207000B6979443558F98C382801C43F58F1CC339
:102080008280B70701401387074083A70740584B5A
:10209000698F09C77D8D3335A0008280014582801C
:1020A000B707014023AAA74082809845937707018C
:1020B0001378F70081C7DC413368F8009441814709
:1020C00013F6F60F39C21C410146854E3D4F930F62
:1020D000800293028004214EB398CE00B3F516011E
:1020E0006391B80213132600B3156F0093C5F5FF73
:1020F000ED8F33136800B367F3006315F70F232ADE
:1021000015010506E31AC6FD1CC14166130606F05B
:10211000758E49C237F6FF1F032646701376060FE9
:102120007DE237160140930506806312B50C83A744
:102130000183A145854E3D4F930F80029302800499
:10214000414E3393BE0033F666006312C30213960A
:1021500025000116B318CF0093C8F8FFB3F7F800B5
:102160003316C800D18F6312F70B232A650085054B
:10217000E399C5FD5CC137F6FF1F03264670137651
:10218000060F09EA37160140930506806314B50867
:1021900023A8F182C16763E6F604504D8147054EDE
:1021A0003D4F930F800293028004A14E9385070157
:1021B000B315BE00B3F8B6006391150393982700DA
:1021C00033131F011343F3FF3376C300B318180111
:1021D00033E6C800631CF7054CC98507E398D7FDB3
:1021E00050CD8280E31F57F02328150119BF9305B6
:1021F00006C06315B50083A7418325BFE31BC5F265
:1022000083A781833DB75C412DB7E31257F623289E
:102210006500B1BF930506C06315B50023AAF1821E
:1022200095BFE319C5F623ACF182ADB7E31757FAB2
:10223000B315FE000CD155B708456D8D3335A000A0
:10224000828093970501C1831CC9C1810CD1828012
:102250004CC9828001CA93970501C1831CC9C18101
:102260000CD182804CC9828093F7F500918113973D
:102270002500B7050140BA95944586070D473317E9
:10228000F7001347F7FF758F98C598453315F5008C
:10229000598D88C5828023ACA186828003A781875F
:1022A000854714216310F7021C31639CE7023C212F
:1022B000960793E707F837E700E093F7F70F3697AD
:1022C0002300F740054793D756003317D7005441F2
:1022D00089CE938707048A07B7E600E0B69798C3CC
:1022E0008280EDF33C219607F9B793870706E5B79F
:1022F000377700401C43F59B1CC3B7F700E003A7EA
:1023000007D11367470023A8E7D005476311E5020B
:1023100003A707D15D9B23A8E7D07300501037F7C0
:1023200000E0832707D1ED9B2328F7D0828083A686
:1023300007D103A707D193F606021367870223A8E4
:10234000E7D003A707D11377F7FD558F23A8E7D070
:1023500003A707D11367870023A8E7D073005010A5
:1023600003A707D1136787007DB7B777DC02938790
:1023700007C01CC137160240584211839376F700FC
:10238000370700201307070136971423504293F6AE
:10239000F60F1376060833D7D70019E233D7D702E2
:1023A00058C118C558C5828099C5371702401C4FBF
:1023B0005D8D08CF8280B7170240984F1345F5FF17
:1023C000798D88CF828099C5371702405C4F5D8D2B
:1023D00048CF8280B7170240D84F1345F5FF798D5B
:1023E000C8CF82801A218D6793870704B6217D8F1D
:1023F0009E21D58FD621D58FF621D58F9625D58FC5
:10240000B625D58FD625D58FF625D58FD98F1EA188
:102410009E291EA982801E2593F70708EDFF4EA571
:102420001E2593F70708EDFF82801E2137370140F4
:10243000130707C0C207C1836306E50037070040E2
:102440006316E500BA2193F7F7F8D98FFA2193F7CD
:10245000F7CFC207C183D98F1EA1DE215EB59E21B1
:102460001EB5B7370140938707C06306F500B7076D
:1024700000406314F5009C251EB985475EA9828043
:102480001E294A25ED8F4205418189C76D8D33355F
:10249000A00082800145828093C5F5FFC205C181FD
:1024A0000EA98280EFD2DFC81629F577FD17F58FC8
:1024B000F621DA250111D58F1EA95625FD779387C0
:1024C000379FF58FD6212A842EC6D58F9625D58F96
:1024D000B625D58F5EA55E29C207C18393F7F7CFD6
:1024E000D98F5EA90808EFF05FE8B74701409387EE
:1024F0000780B245631EF402F2476547B387E702DF
:102500009841930640060A07B3D7E70233D7D702AC
:10251000B3F7D7021207920793872703B3D7D702DF
:10252000BD8BD98FC207C1831EA405616FD09FC226
:10253000E247E1B791C55E250967D98F5EA5828024
:102540005A25F977FD17F98FD5BF13F7F50F854792
:102550001583B395B7006319F7009307C500984337
:1025600001CED98D8CC38280894693074501E3183B
:10257000D7FE93070501E5B793C5F5FFF98DDDB7E4
:1025800093F5F51F4EA182804A211375F51F8280B5
:102590000A216D8D3335A000828083A7C182371751
:1025A0007A0013070720B3D7E70293F7F70F238FBB
:1025B000F1861307803EB387E702239EF18682806F
:1025C000B7F700E0D8438146799BD8C303D7C187CA
:1025D0003306A70290CBD4CB98431367070198C367
:1025E00098431367170298C3D843058B75DF984348
:1025F000799B98C38280EFD21FB2B7540040AE8956
:1026000032890144938404C0634524014A856FD014
:10261000DFB3930500042685EFF09FF77DD9B387DC
:1026200089008385070026850504C205C181EFF076
:102630003FF5D9BF1387C1831C43938601C53E95DF
:10264000636BD500B75600209386068063E5A6002D
:1026500008C33E858280FD57EDBF411137078000DA
:102660007D1713D8750126C2935475013373A700E3
:1026700093F4F40FB376B7004AC01378F80F1359E8
:10268000F50106C622C4FD819A8726854A86131E57
:102690003300939E3600B3880441630AB90E635039
:1026A000100D630408149307F00F638BF414B7073D
:1026B0000004B3EEFE00ED4763C117299307000243
:1026C000B3871741B397FE00B3D81E01B337F000AC
:1026D000B3E7F800B307FE4013975700635E07188F
:1026E000370400047D147D8C2285EF00B07E6D15CB
:1026F000B317A4006348951A058D1304150013073A
:102700000002018F3397E7003337E000B3D787002B
:10271000D98F814413F7770019C713F7F700914653
:102720006303D700910713975700635B0714850471
:102730001307F00F4A866383E4169A07A58313F5FF
:10274000F40FB2402244A6079314750113D59700E5
:10275000458D7E0692440249518D410182806399E4
:10276000080A138714001377E70F631707146390A1
:102770000422630D0E1EE3860EFCB307DE411397A1
:10278000570063500722B387CE412E8961B7635C3F
:10279000100B630E08089307F00F6383F406B70766
:1027A0000004B3EEFE00ED4763C9171F9307000254
:1027B000B3871741B397FE00B3D81E01B337F000BB
:1027C000B3E7F800F297139757006357070A850499
:1027D0001307F00F6384E40CB706007E13D71700CD
:1027E000FD16858B758FD98F35B7638D0E08FD1853
:1027F000B307DE41E38208EE9307F00FE39DF4EAAE
:10280000630D030801461305F00FB707400015BF1D
:1028100033079840EDE863020E147D17630807182C
:102820009307F00F6319F80E2E893683D1BF638B9F
:102830000E04FD18B307DE01E38708F89307F00FD5
:10284000E393F4F675BF63950808850413F7E40F66
:102850006313071263170510630F0E14E3830EEE64
:10286000B307DE011397570081446357070037070A
:1028700000FC7D17F98F854413F77700E31F07E805
:1028800013D337009307F00FE38CF4F693179300FC
:10289000A58313F5F40F4A866DB54A861305F00F2C
:1028A000814745B5370700FC7D17F98F13F777008F
:1028B000898CE31407E6E9B73304DE41931754002B
:1028C00063C3070CE31204E201460145814795BD4D
:1028D00033079840ADC49307F00FE308F8F4B70747
:1028E0000004336EFE00ED4763CCE70C9307000253
:1028F000998FB317FE003357EE00B337F000D98F2E
:10290000F697C284C9B59307F00FE30FF8F0B70745
:102910000004336EFE00ED4763C3E7089306000230
:10292000998EB316DE00B357EE003337D000D98F3F
:10293000B387FE40C2842E8945B3854761BB630ED1
:102940000E067D17B307DE01C284E30E07E6930788
:10295000F00FE31AF8F8368365B53683C2842E8902
:1029600015B7E3040EECE38D0EE869BD638D0E022E
:102970002E86B687F9B39307F00FE381F4F2B3071D
:10298000DE018583D5BD3384CE412E89B1BBE31CE6
:102990000EFCE3890EE62E8949BD854725B585479E
:1029A00041BFE39B07EC0146814761BBB387CE4142
:1029B000C2842E8915B3B68769B33683C284D9B56C
:1029C00085473DBF3971935775014AD856D25ECEBF
:1029D000931A95001359F50106DE22DC26DA4ED64D
:1029E00052D45AD093F7F70F93DA9A00CA8B6382C6
:1029F00007121307F00F6384E7128E0A37070004EB
:102A0000B3EAEA00138A17F80144014B93D7750122
:102A10009394950093F7F70FA58093D9F501FDC71F
:102A20001307F00F6387E7028E04938717F83707C1
:102A30000004D98C330AFA408146558C1767000090
:102A4000130747740A043A941C4033493901BA9772
:102A50008287130A1AF0F9E88946558C1767000037
:102A6000130747760A043A941C4033493901BA9750
:102A7000828701491307F00FB707400013959700AD
:102A8000F25062549317770125817E095D8D33657D
:102A90002501D2544259B259225A925A025BF24B42
:102AA000216182801307F00F8147C9BFA68ACE8BB0
:102AB000368B8947630BFB1A8D47E30CFBFA85477E
:102AC000630AFB0A1307FA0713F91B006357E012A6
:102AD00093F77A0099C793F7FA0091466383D7007A
:102AE000910A93974A0063D90700B70700F8FD17CA
:102AF000B3FAFA0013070A089307E00FE3C4E7FAF2
:102B000093976A00A5831377F70F8DBFB9E48546C5
:102B1000A9B763940A021144014A054BC5BD6399E4
:102B20000A002144130AF00F094BCDB58D4631B789
:102B30003144130AF00F0D4BD1BD56852EC6EF0060
:102B400070399307B5FFB39AFA009307A0F8338A58
:102B5000A7400144014BB24555BD2685EF00903793
:102B60001307B5FFB307AA00B394E400138A6707FD
:102B70008146E1B513F91B000147814701B7416662
:102B8000139554007D1693570501698E63FA9A0ACE
:102B9000B3D5FA027D1AD68601473388C502B3F64B
:102BA000F602C206558F637B07012A979386F5FFCD
:102BB0006368A70A6376070BF9152A97330707415D
:102BC000B356F7023377F702B38AC60293170701A9
:102BD00063FB5701AA971387F6FF63E1A70863FF1A
:102BE0005707F916AA97C205B38A5741D58DB33A4C
:102BF0005001B3EA5501CA8BF1B58546998E11C7CC
:102C00006D4601478147E34BD6E6130AEA09339A3A
:102C10004A01B3D7DA00B33A4001B3E7570113F7DB
:102C2000770019C713F7F70091466303D7009107A0
:102C300013975700634807029A07A58301473DBDD4
:102C400093D61A00B3D5F6021397FA01418333885D
:102C5000C502B1B7CE8B368B814AA1BDBA8661B7AA
:102C6000B685A9BF0547814711BD13F91B0013079E
:102C7000F00F814721B593567501B7078000FD1706
:102C800013D6750193F6F60F1308F00FB3F8A700EB
:102C90001357F501ED8F1376F60FFD816387060359
:102CA0006309060185EA11EA89EB0145639B080087
:102CB00082800945F5FFE5DA31A8638C08026300DC
:102CC000B704054575D77D5582800945639808028C
:102CD0006304D60211E2F5D7E315B7FEE343D6FE4F
:102CE00063C7C600E3EF17FD0145E3F3F8FC19E302
:102CF000D9BFF1D905458280E5D3828082808146A3
:102D0000C5B7797122D4135475014ECE52CC9319A4
:102D1000950006D626D24AD056CA5AC81374F40F64
:102D200093D99900135AF50169C49307F00F63080A
:102D3000F40E9397390037070004B3E9E700130452
:102D400014F88144014B13D77501939A95001377BA
:102D5000F70F93DA9A0013D9F50145CF9307F00FD7
:102D6000630CF7028E0A130717F8B7070004B3EADB
:102D7000FA003A94014633452A01BD47AA869305D5
:102D8000140063E29710176700001307A7478A042F
:102D9000BA949C40BA9782871304F40F63980A0C84
:102DA00093E424000946C1BF01451307F00FB7079C
:102DB0004000B2502254A6075E07A5837E05D98F36
:102DC00092540259F249624AD24A424B5D8D4561A2
:102DD0008280CA86D689328B89476301FB0A8D4778
:102DE000E304FBFC854736856312FB1A01478147E4
:102DF000C9B7639E090413D77501939A9500137799
:102E0000F70F91440144054B93DA9A0013D9F50169
:102E100031F7639D0A0093E414000546A9BF63934C
:102E20000902A1441304F00F094B31BF5685EF008E
:102E3000700A9307B5FF098CB39AFA001304A4F83B
:102E4000014615BFB1441304F00F0D4BEDBD4E8587
:102E50002EC6EF0030089307B5FF1304A0F8B3990E
:102E6000F900098C8144014BB245F1BD93E4340073
:102E70000D4611B78947D286E313FBF63685130753
:102E8000F00F81473DB741639306F3FF13D6090165
:102E900093D80A01B3F7D900B3FADA00338857039D
:102EA000B389F80213570801B30A5603D6994E970F
:102EB00033061603637357011A96C167FD17B3767D
:102EC000F7003378F800C206C296939966009357CC
:102ED0000701B3393001E982B2979A07B3E6D90006
:102EE000B3E9D7009397490063D9070013D71900B6
:102EF00093F71900B369F7002E841307F4076350A2
:102F0000E00493F7790099C793F7F900914663833A
:102F1000D70091099397490063D90700B70700F8D4
:102F2000FD17B3F9F900130704089307E00F63CB0B
:102F3000E70493976900A5831377F70F9DBD854735
:102F4000B386E74011C76D4601478147E343D6E6A4
:102F50001307E4093397E9003337E000B3D7D9000A
:102F6000D98F13F7770019C713F7F700914663035A
:102F7000D700910713975700634C07009A07A58362
:102F8000014705BD1307F00F814725B52E84B5B75E
:102F90000547814739BD3707800041117D1793569A
:102FA000750113D87501B377A70093F6F60F935EFA
:102FB000F5013376B70026C24AC01378F80F06C66B
:102FC00022C41303F00F3E8E3689F684139F370018
:102FD000FD8113153600B38806416302681093C55E
:102FE0001500638CBE106354100D63100810630449
:102FF000051EFD18B307AF40638608029307F00F64
:103000006388F616ED4763C71729130700023307D5
:1030100017413317E500B35715013337E000D98F57
:10302000B307FF40139757006351071A3704000492
:103030007D147D8C2285792D6D15B317A400634E08
:10304000251B330525411304150013070002018FCA
:103050003397E7003337E000B3D78700D98F0149B2
:1030600013F7770019C713F7F70091466303D700EA
:10307000910713975700635E07149306190013070F
:10308000F00F93FE14006386E6169A07A58393F665
:10309000F60FA607B240224413D59700DE06939799
:1030A000FE01558D924402495D8D410182806392FB
:1030B000080A138716001377E70F631B071463943E
:1030C000062263020F2071D5B307AF401397570054
:1030D00063550722B307E5410149AE8451B7E300C8
:1030E00005F0638ABE0AE35410FD9307F00F638175
:1030F000F608B70700045D8D31B7635E1009630100
:1031000008089307F00F6385F606B70700045D8D86
:10311000ED4763C0171F130700023307174133172A
:10312000E500B35715013337E000D98FFA971397AD
:103130005700635C070805091307F00F630BE90AE2
:10314000B706007E13D71700FD16858B758FD98FB4
:1031500001BF3307D84063950610630D0F147D1728
:103160006303071A9307F00F6314F810AE84328ECE
:10317000630F0E06814E9306F00FB707400011BF94
:1031800039C9FD18B307AF00E38308FA9307F00FBE
:10319000E390F6F8F1BF63990808138916001377D6
:1031A000E90F63160712639B061063030F16E30211
:1031B00005EEB307AF0013975700014963570700A7
:1031C000370700FC7D17F98F054913F77700E31CDB
:1031D00007E813DE37009307F00FE30BF9F89317B6
:1031E0009E00A5839376F90F93FE14005DB593FEC0
:1031F00014009306F00F814769BD370700FC7D1767
:10320000F98F13F777003309A940E31E07E4D1B71C
:103210003304AF409317540063C3070CE31C04E06E
:10322000814E81468147B5B53307D840B5C693076F
:10323000F00FE30EF8F2B7070004336FFF00ED471D
:1032400063CDE70C93070002998FB317FF00335744
:10325000EF00B337F0005D8FB307A7004289C1BD0F
:103260009307F00FE304F8F0B7070004336FFF0093
:10327000ED4763C2E70893070002998FB317FF0079
:103280003357EF00B337F000D98FB307F5404289C9
:10329000AE8449BB854769B3630E0F067D17B3073C
:1032A000AF004289E30507E89307F00FE319F8F848
:1032B000328E7DBD328E4289AE8431BFE3090FEA82
:1032C000E30805EA45BD0DCDAE8EB287D9B39307AD
:1032D000F00FE300F9F2B307AF008583FDB53304C7
:1032E000E541AE8481BBE31D0FFCE30505E8AE8438
:1032F000BDBD854725BD854749BF0149E39707EC1B
:10330000814E814779B3B307E5414289AE8419BB49
:10331000B28741B3328E42897DBD054735BF37063E
:103320008000135775019307F6FF1377F70F930586
:10333000E007B3F6A7009357F50163FCE50093059A
:10334000D00963FAE500370500801345F5FF3E9587
:1033500082800145828093055009D18E63CDE500BE
:10336000130660093307E64033D7E6003305E04033
:10337000F5F33A8582801307A7F63397E600FDB789
:1033800013577501370680009307F6FF1377F70F81
:103390009305E007B3F6A7009357F501014563F4E1
:1033A000E50099C3828082809307E0097D55E3EBB5
:1033B000E7FE93055009B3E7C60063D7E50013079E
:1033C000A7F63395E7008280130560093307E540CF
:1033D00033D5E7008280411106C622C426C20DCD36
:1033E0009357F54133C4A7001D8CAA842285DD24A0
:1033F0009307E0093387A74093076009FD8063CCFA
:10340000E702A1469377F70F63D5A6006115331441
:10341000A4002604258021A081448147014426047C
:1034200013559400B2402244DE07FE045D8D458DA5
:103430009244410182809307900963DDE70093077E
:10344000B5019546B317F400898E3354D400B337D1
:10345000F0005D8C954763D6A7009307B5FF331442
:10346000F400B70600FCFD16937774003376D400A1
:1034700085C39377F4009145638CB70011069317C9
:10348000560063D707009307F009758E3387A7406E
:103490001314660025809377F70F51B7411106C6C4
:1034A00022C415CD2A843D249307E0093387A74021
:1034B0009307600963C0E704A1469377F70F63D5CC
:1034C000A60061153314A400260425802604135594
:1034D0009400B2402244DE075D8D410182800144A8
:1034E000260413559400B24022448147DE075D8DC7
:1034F000410182809307900963DDE7009307B501DE
:103500009546B317F400898EB337F0003354D400D6
:103510005D8C954763D6A7009307B5FF3314F4007D
:10352000B70600FCFD16937774003376D40085C38C
:103530009377F4009145638CB700110693175600FA
:1035400063D707009307F009758E3387A7401314DC
:1035500066002580260413559400B24022449377D8
:10356000F70FDE075D8D4101828093D64501939769
:10357000C50093F6F67FB183138616008E071357A6
:10358000D5011376E67FFD815D8F9318350035CE2A
:10359000138806C89307E00F63DD07018147139581
:1035A00097009306F00FDE062581FE05558D4D8DA3
:1035B00082806355000B931765000E07B337F00048
:1035C000D98F93D8D801B3E7170113F777006301B8
:1035D000071013F7F70091466303D70091073707E9
:1035E00000047D8F75C7130718001306F00F93763C
:1035F000F70FE305C7FA9A07A58313959700DE0630
:103600002581FE05558D4D8D8280B367170199EE9A
:1036100085CF95479A07A5831395970093F6F60FE4
:10362000DE062581FE05558D4D8D8280A5DBB70711
:103630004000139597009306F00FDE068145258123
:10364000FE05558D4D8D82808147139597008146EB
:10365000DE062581FE05558D4D8D8280A557634878
:10366000F804F94737068000B38707417D45598E36
:103670006351F504795733070741130500023357A7
:10368000E6006388A700938626CAB316D600B3E87F
:10369000D800B3371001D98F13F77700014815FB15
:1036A000139757008546E34807F48146A5B781463E
:1036B0008DB7938626C83397D8003337E000B3160A
:1036C000D600B3D8F800B367D700B3E7F800E9B77E
:1036D000C28689B7C167637CF5029307F00F1307B1
:1036E000000263EBA700976700009387A7B5AA972E
:1036F00088233305A7408280218197670000938744
:1037000067B4AA97882361473305A7408280B7072B
:103710000001636DF500618197670000938787B2B0
:10372000AA97882321473305A74082804181976764
:103730000000938727B1AA97882341473305A74004
:10374000828081456F10800A294681456F10601F75
:10375000294681456F10E01E938701842E86AA8535
:103760008843E1A093870184AA85884371A2938747
:103770000184AA858843E9A8B3C7A5008D8B3307C8
:10378000C50081E78D4763EDC700AA87637EE50822
:10379000942185078505A38FD7FEE3EBE7FE8280A2
:1037A00093763500AA8789CA942185078505A38F5A
:1037B000D7FE93F63700C5BF9376C7FF138606FE84
:1037C00063F0C70683A3050083A2450083AF85008D
:1037D00003AFC50083AE050103AE450103A3850118
:1037E00083A8C5019385450223A0770003A8C5FFE0
:1037F00023A2570023A4F70123A6E70123A8D7019A
:1038000023AAC70123AC670023AE170193874702A1
:1038100023AE07FF75B790419107910523AEC7FE10
:10382000E3EBD7FEE3E6E7F682803386C5020111BB
:1038300022CC06CEB28532C6C1202A8409C53246C2
:103840008145EFC0FF912285F2406244056182808C
:10385000DDC183A7C5FF411122C406C626C2138459
:10386000C5FF63D307003E94AA84EF10903093877E
:1038700001889C4381EF2322040023A081882244F5
:10388000B2402685924441016F10D02E637EF40031
:1038900014403307D4006396E7009843DC4336971F
:1038A00018C05CC0D9BFBA87D84319C3E37DE4FE12
:1038B00094433386D700631F86001040B29694C3AA
:1038C0003386D700E31DC7FA10435843B29694C31A
:1038D000D8C375B76375C400B1479CC04DB71040DD
:1038E000B306C4006316D70014435843B29614C0FD
:1038F00058C0C0C369B78280011126CA93843500BD
:10390000F19806CE22CC4AC84EC6A104B14763F353
:10391000F404B14463E2B4042A89EF10902593873C
:10392000018898433A8439E0938741889C4391E722
:1039300081454A85E92823A2A188A6854A85C12810
:10394000FD5963193507B1472320F9004A85EF1067
:10395000702229A0E3D004FCB1471CC10145F2400C
:103960006244D2444249B249056182801C40858F3D
:1039700063CF0702AD4663F6F6001CC03E9404C058
:1039800031A05C406313870223A0F1884A85EF10C1
:10399000701E1305B4009307440061993307F54086
:1039A0005DDF3A94898F1CC05DBF5CC3C5B72287B9
:1039B000404095BF130435007198E30285FCB305C0
:1039C000A4404A85A920E31C35FBB5BF39713EDA16
:1039D0002ED232D436D63AD842DC46DE93870184E2
:1039E00022CC804326CA06CEAA8411C41C4C81E78F
:1039F0002285EF1040090C4454102686228536C6D5
:103A0000EF20606BF2406244D24421618280411118
:103A100022C42A842E8523A601C406C6EFE09FC1D6
:103A2000FD576317F5009387C1C49C4391C31CC025
:103A3000B24022444101828035713ECBB7070080FD
:103A400093C7F7FF3ECE3EC8C1779387872032C524
:103A500036C73AC942CD46CF3ECA938701842AC4AD
:103A60002ACC884334012E862C0086DE36C2EF2015
:103A70006037A24723800700F6500D618280AA8735
:103A800098239386170009EB850503C7F5FF850783
:103A9000A38FE7FE75FB8280B687DDB793F5F50F40
:103AA0001C2191C76393B70082800505D5BF91C1E2
:103AB00001458280AA87982185078505A38FE7FEA7
:103AC0007DFB8280AA87850703C7F7FF6DFF3385DB
:103AD000A7407D15828015C27D160147B307E5001A
:103AE000B386E5009C2394226396D7006304C70045
:103AF0000507EDF73385D740828001458280182184
:103B00009C2101E791C301458280814739A01C3186
:103B100013071500EDDB81473A853387F50018233D
:103B200065D7B306F5009422E393E6FE85072A875E
:103B3000E5B7011122CC2A872E843A85A28532C6A8
:103B400006CEEF10107032462A88AE8805C6518026
:103B50001374F47F9307B006818F635DF000D20782
:103B60003707F03F01483E974286BA86EF40201162
:103B70002A88AE88F24062444285C685056182800B
:103B800035714AC92A89368532D436C606CF22CD48
:103B900026CB4EC7EAD8EED62E8D52C556C35AC193
:103BA000DEDEE2DCE6DA82C8EF102079AA8D084179
:103BB00081440144EFF01FF1B246AA89EAC63546B6
:103BC0009305B0021305D00213080002A548B647BA
:103BD0009823636BE608637F170955C702C8364A06
:103BE00093070003814A03470A00631BF7128347C8
:103BF0001A00130780056388E70013068007130780
:103C000000036396C710C24736889808D408175631
:103C1000000013062679EC004A85EF10800993799D
:103C20007500AA8A6388090099476397F906050A0F
:103C3000D2C602C8A25781C7B64722571CC3C24783
:103C4000B9C7B7050080A18DFA406A4426854A4964
:103C5000DA44BA492A4A9A4A0A4BF65B665CD65C51
:103C6000465DB65D0D6182806309B7006303A702FC
:103C7000E31607F78507BEC699BF02C8138717006A
:103C8000BAC69C33A9FFA257EAC602C8D5F7A285D7
:103C900065BF05473AC8DDB7464611CA93055003CC
:103CA000A808EF10307EC6454A85EF108075FD19D3
:103CB000914763EE3701175700001307A7688A0979
:103CC000BA9983A70900BA978287E644764493FAA3
:103CD0008A00E3810AF6B70700805D8CA1BFF64534
:103CE0003704F0FF7D14B3F785005644E64413040F
:103CF00034439315440133E4B700D1BF3704F07F58
:103D0000F9B7B705008013C4F5FFFD54C9B7B6472E
:103D100093861700B6C69C33E38BE7FE81DF854AA6
:103D2000B64C014A814B014CA546A145A9473645F1
:103D3000034B050013070BFD1376F70F63FDC60455
:103D400083A50D004E86EFF01FD93DC1DA87E28DC5
:103D50008146014B0145130750066387E7001307AF
:103D6000500481496395E71663960D00B3E7560149
:103D700099DB814D364D1307B00293071D00BEC677
:103D800083471D00638FE70C1307D002014863903F
:103D9000E70E0548C1A863C98501B38BFB02BA9B36
:103DA0000505050CAAC661B7330AFA023A9ACDBFD7
:103DB000364581464E95AAC61C21630B0C06014B65
:103DC000E28D138707FD25466375E602054561B759
:103DD000B647850613861700B2C69C33E38AE7FE12
:103DE0001387F7FC2146E366E61EB64C368B814D01
:103DF0008146938707FD1387160085C73A9B338555
:103E0000B6016E872148C14829466316A702850D71
:103E1000B69DA14663CEE6022947B38BEB0201476C
:103E2000BE9BB64793861700B6C69C33BA8651BF71
:103E30001307000365B7930517006346E800B38BCB
:103E4000CB022E87D9B7E3CEB8FE330ACA02D5BF5C
:103E5000C1460147E3C7B6FDA946330ADA023E9AD6
:103E6000C9B7014893072D00BEC683472D001387AD
:103E700007FD25466365E60C130700036385E70A23
:103E80001387F7FC214681496363E604B64813872C
:103E900007FD2543294EB64713861700B2C69C334B
:103EA000938507FD93F5F50F6375B30895693306A0
:103EB00016419389F9E1A148CE8563C6C800BA8945
:103EC00063D3E500AE8963040800B309304163960B
:103ED0000D0CB3E6DA00E39F06D4E31605DA130708
:103EE000E0046389E706634FF70413079004E39C3B
:103EF000E7D8975500009385E549E800EF10C02A00
:103F0000E30305D8B647975500009385E548E800D8
:103F1000FD17BEC6EF10402901E5B6478507BEC6AE
:103F20003704F07F01BBB64713861700B2C69C3337
:103F3000B1B73307C703BA97138707FDA9BFEAC60E
:103F4000814971B713079006E385E7FA1307E00686
:103F5000E39BE7D29755000093858544E800EF1076
:103F6000A024E30205D2B647982393078002631387
:103F7000F702B0089755000093850544E800EF105C
:103F8000802595476318F500F6453704F07FE64431
:103F90004D8C4DB13704F8FF71B9B38A6941631391
:103FA0000C006E8CC1476E8D63D3B701414D5E85A9
:103FB000EF40B01FA547AA842E8463DCB7039307A4
:103FC0007DFF13973700975700009387274CBA97C8
:103FD0009043D443EF30B04A2A845285AE84EF40F8
:103FE000D01C2A86AE862285A685EF20305EAA8464
:103FF0002E84BD4763CDB709E38E0AC263545007D0
:104000005947634357038E0A975700009387074821
:10401000BE9A03A50A0083A54A002686A286EF3031
:104020001046AA842E8439B1130750023307B741D2
:10403000634F5705B38DB741175900001309094560
:1040400093973D00CA978843CC43B38DBA412686E7
:10405000A2868E0DEF30B042CA9D03A60D0083A646
:104060004D0075BFA95763C4FA02B3093B41139BC6
:1040700039009759000093896941DA9903A609002C
:1040800083A649002685A285EF30404759BF338D6E
:10409000AD41569D6357A0119377FD0099CF1757F7
:1040A00000001307A73E8E07BA978843CC432686A5
:1040B000A286EF30D03CAA842E84137D0DFF6308C6
:1040C0000D0A9307401363D5A705014B814902C62A
:1040D000814B930720022320F9003704F07F8144AD
:1040E000B247E38907B4C6454A85EF108031DE85C3
:1040F0004A85EF100031CE854A85EF108030B245F9
:104100004A85EF100030DA854A85EF10802F1DB602
:10411000135D4D402685A2858147014A0548975881
:104120000000938828346346A80599C3AA842E8486
:10413000175700001307073393173A00BA978843BD
:10414000CC433707B0FC22972686BA86EF3030334F
:104150003704F07FB377B4003707A07CAA84E36606
:10416000F7F63707907C637AF7027D14FD54014A15
:10417000DDA813771D0011CF13173A00469710439F
:104180005443EF30D02F8547054897580000938857
:10419000682D050A135D1D4079B7370450032E942E
:1041A000F9B7E3060DFC330DA0419377FD0099CFDD
:1041B000175700001307872D8E07BA979043D443F3
:1041C0002685A285EF308033AA842E84135D4D406E
:1041D000E30F0DF8FD4763DDA701014B814902C6DE
:1041E000814B93072002814401442320F900CDBD77
:1041F000137A0D0163040A00130AA0062685A2851E
:10420000975700009387871C014793761D0081CA4A
:104210009043D4433EC6EF309026B2470547135D26
:104220001D40A107E3130DFE19C3AA842E84630564
:104230000A029357440113F7F77F9307B006998F4B
:10424000635CF0007D476354F72213074003814409
:104250006359F72037047003014681462685A285FD
:10426000EF3010053DD95E87EE866286E6854A8589
:10427000EF10E0262AC6E30A05E493D7FA41B30912
:104280003B41B3F7F9003ED056CE63D30A0002CECD
:10429000B247014B8149B1073ED8B7071000FD175F
:1042A0003ED6B2474A85CC43EF10E00CAA8BE3021E
:1042B00005E2B247C2553105904B09060A06EFF0F8
:1042C000AFCBB808D4082286A6854A8526CA22CC58
:1042D000EF10D006AAC8E30E05DE85454A85EF102B
:1042E0004035AA89E30705DED64763C7071802579A
:1042F000724C338DE7006647B387474193066003EE
:10430000BA97FD17930D20C0998E63D6B7193387DE
:10431000FD407D46998E6346E616854DB397ED00C8
:104320003ED2814C369CB30DDD00529CEA8763D3AC
:10433000AD01EE876353FC00E2876358F000B38D54
:10434000FD40330CFC40330DFD4082576358F002B2
:10435000CE853E864A85EF10C043AA89E30B05D679
:104360004646AA854A85EF10802E2ADAE30305D651
:10437000C6454A85EF10E008D257BEC8634FB0115A
:10438000635A50017246DE854A85EF108040AA8B41
:10439000E30105D4635A8001DE8562864A85EF1009
:1043A000204BAA8BE30705D2635AA001CE856A860B
:1043B0004A85EF10E049AA89E30D05D0C6455E861F
:1043C0004A85EF10E0582A8BE30505D0032CC50081
:1043D000CE8523260500EF1080546359050C336CFD
:1043E0009C0063110C129317C400639D0710B7075C
:1043F000F07FE18F3707B0066376F71083274B0114
:1044000091E703270B01854763DEE70EDA85054652
:104410004A85EF10E043CE852A8BEF10405063535E
:10442000A00E630C0A10B707F07FE18F3707B006C4
:104430006345F71037077003E355F7DA0147B7070D
:1044400050392685A2853A86BE86EF3050032E84E9
:10445000C98DAA84E39905C8930720022320F90097
:1044600059B181177D57B317F7007D8CF5B37D5790
:10447000B317F700FD8CCDB37247025D330CF740E4
:104480009DBD930C20BEB387FC40854CB39CFC00C3
:1044900085473ED241BD814CE5BFC6456E864A8503
:1044A000EF10003BAAC8E31D05EC25B169E9370709
:1044B00010007D17B377E40063090C046399E704E7
:1044C0007D5763000A02B707F07FE18FB706A006A9
:1044D00063E9F600D1839306B006B387F64033173D
:1044E000F7006396E402B707F07FFD176315F40049
:1044F000FD57E380F4BEB705F07FE18D370410006F
:104500002E948144E31C0AF2F9BEC58F99DB6382C5
:104510000C04B3FC8C00E3870CFE52862685A28532
:10452000630F0C02EFF0EFE02A86AE865245E245BB
:10453000EF20D009AA842E84F1B7B705F07FE18D72
:104540003704F0FFA295370410007D144D8CFD5404
:1045500055BF9257B3FD9700E3860DFA7DBFEFF08C
:104560004FDD2A86AE865245E245EF30D03C01460B
:104570008146AA842E84EF30A05349F59DB1CE85A3
:104580005A85EF10E06897570000938727DE904325
:10459000D4432A8DAE8DEF3020636342A0106301B7
:1045A0000C0A814D370DF03F0147B707F03FB706C2
:1045B000F07FB37CD400B706E07F639FDC166AD23D
:1045C000370DB0FC229D2685EA853EDE3ADC6EDAA8
:1045D000EF102047D25812582A86AE864685C285EB
:1045E000EF30E0692686EA86EF20407EAA84370510
:1045F000F07F3376B500B706A07C6257F25763654B
:10460000D60C62479307F5FF6396E7005247FD57C4
:10461000E381E7ACB707F07F1384F7FFFD54C6458D
:104620004A85EF00105EDE854A85EF00905DCE85FD
:104630004A85EF00105DDA854A85EF00905C95B100
:10464000B1E0B257E18FA1E797570000938787D178
:104650009043D4436A85EE85EF300057634D0502E1
:1046600097570000938787CF9043D4436A85EE85A0
:10467000EF30E0602A87AE87370D0080BA8D334D6A
:10468000FD0035B785476394F400E30C04B4814D15
:10469000370DF0BF11BF0147B707E03FF1BF975794
:1046A00000009387A7CB9043D4436A85EE85EF3013
:1046B000005D2A87AE872E8D63160C00370D0080B3
:1046C000334DBD00AA8DE5B5370450032E94E31891
:1046D0000AF4B706F07FE18EE393DCF4BE853A85F9
:1046E0003A8DBE8CEF400019EF4000252A86AE8639
:1046F0006A85E685EF303024B2572A8DAE8DE18F82
:10470000C58F33EC8701630B0C0A97570000938722
:10471000E7C69043D443EF30204BE346059C9757C0
:104720000000938727C69043D4436A85EE85EF3017
:10473000C03EE356A0EE45BA630D0A04B706A006D4
:1047400063E99605975600009386C6C29042D4420C
:104750003A85BE853ADA3ED2EF300047925752573B
:104760006344A0023A85BE85EF40401711E105453C
:10477000EF40A0232A87AE872E8D63160C00370DDD
:104780000080334DBD00AA8DB705B0062E9D330DB8
:104790009D415245E2453EDA3AD2EF10802A2A8600
:1047A000AE866E85EA85EF30804D5246E246EF20B8
:1047B000E061AA842E84D257125711BF9757000088
:1047C0009387C7BC9043D443EF300040E35905E4DE
:1047D00019BA130750066387E7001307500405450D
:1047E0006399E7EE014B05456FF04FD8938701843D
:1047F0009C432E86945389E697C6FF1F938686882E
:10480000AA853E856FF0CFB779714AD04ECE06D6D5
:1048100022D426D2AA892E899304190003C4F4FF56
:104820003A8536C632C42EC23AC0EF00B030229567
:104830001C3102479245A18B2246B246D1E3930731
:10484000D0026311F4089C20054393042900E5C6B7
:1048500041476390E60213070003639CE7009C2036
:104860001307800593F7F70D6392E70C9C30C14660
:104870008904B70800806314030093C8F8FF33FF6E
:10488000D80201480145A54FE54EFD5233DED8025E
:10489000138707FD63E3EF04BA8763DED704630D74
:1048A00058007D58636AAE006314AE006346FF0093
:1048B00005483385A6023E95850483C7F4FFC9BF2A
:1048C000268999BF9307B0026305F400A2870143CC
:1048D000BDBF9C2093042900DDBF1387F7FB63E570
:1048E000EE00938797FC55BF1387F7F963E5EE0059
:1048F000938797FA5DB7FD57631FF800930720026F
:1049000023A0F900468519EEB25022549254025960
:10491000F24945618280630403003305A0406DD6EF
:10492000630408009385F4FF0CC2F9BF93070003EA
:10493000A9F2A1463DBF13070003E382E7F2A946AF
:104940000DBF938701849C43B286985309E717B73C
:10495000FF1F130727732E86AA853E856FF0DFEAB7
:104960001971A2DC86DEA6DA3284635B0600930747
:10497000B0081CC17D55F6506654D654096182803A
:104980003686930680202EC42ECCF482814519C031
:104990009305F4FFFD572EC82ECEBA862C00FC835B
:1049A000AA84EF102044FD576355F5009307B00823
:1049B0009CC071D0A2472380070075BF93870184F4
:1049C0003687B2862E86AA8588436FF07FF941111B
:1049D00022C406C62A844EA572A5232005002322E0
:1049E0000500232405002322050623280500232A89
:1049F0000500232C0500214681451305C505EFB0B0
:104A00002FF6972700009387E7CE5CD0972700000A
:104A1000938707D11CD4972700009387E7D45CD4F1
:104A200097270000938747D700D01CD8B240224474
:104A300041018280972500009385C50C99AA4111F8
:104A400026C2130680069384F5FFB384C4024AC0CD
:104A50002E8922C406C693854407EFE0FFE92A8425
:104A600001CD2320050023222501310508C413862A
:104A700084068145EFB0CFEE2285B24022449244B5
:104A80000249410182801C4DA5E7411106C622C49E
:104A900097070000938747FA1CD5938781849C432E
:104AA0002324050423260504232805046314F500A4
:104AB00085471CCD2A84352848C022851D2808C476
:104AC0002285052848C4484001469145EFF03FF053
:104AD00008440546A545EFF09FEF48440946C945FF
:104AE000EFF0FFEE85471CCCB240224441018280AA
:104AF000828041119387818426C284434AC006C6BE
:104B00009C4C22C42A8981E72685EFF0DFF7938445
:104B100084048044DC40FD1763D607009C40B9CF75
:104B20008440C5BF0317C40039E7C1778507232236
:104B300004062320040023220400232404005CC470
:104B400023280400232A0400232C04002146814545
:104B50001305C405EFB0CFE0232A0402232C04027E
:104B600023240404232604042285B24022449244D0
:104B70000249410182801304840671BF91454A8530
:104B8000EFF0FFEB88C049FDB1472320F900014455
:104B9000E1BF797122D44AD052CC56CA5AC85EC6F7
:104BA00006D626D24ECE2A8AAE8A1304850401493F
:104BB000054BFD5B09ECB25022544A8592540259D0
:104BC000F249624AD24A424BB24B45618280044468
:104BD00083294400FD1963D409000040E1BFDE24AD
:104BE000637BFB008397E40063877701A68552858A
:104BF000829A3369A90093848406E9BF1049930619
:104C0000450113D75540B6876356C7020A060A07FF
:104C1000FD8936963697B9C9130847001843130320
:104C200000023303B3403357B700636EC80098C324
:104C300011C391073387D740098718C96394D700F8
:104C4000232A050082808328080091071108B39861
:104C5000680033E7E80023AEE7FE0327C8FFE1B7AB
:104C600011078325C7FF910723AEB7FEE36AC7FE8E
:104C7000D1B7930705FD93F7F70F25476367F70053
:104C800001159377F50F3E8582809307F5F993F729
:104C9000F70F954663E5F600130595FBDDB713079F
:104CA000F5FB1377F70F8147E3EFE6FC130595FD5E
:104CB000C9BF1D71D6C2AA8A428536C63AC286CEFF
:104CC000CAC8D2C4DAC05EDE3E8B6ED63289AE8DE3
:104CD000A2CCA6CACEC662DC66DA6AD8B92D832B0E
:104CE00005005E85EFE01FDEB387AB0083A60D00F5
:104CF00083C7F7FF7957158F3EC82A8A9387260006
:104D0000930600033306F700BE84850703C5F7FF4B
:104D100032C4E309D5FEEFF0DFF5631E05105286BD
:104D2000DE852685EFE03FDB631C0510338C4401F4
:104D300003450C00EFF0FFF363050510E2849307D1
:104D400000038820630BF500EFF0BFF2854793392D
:104D50001500E28C3EC4268C21A08504DDB7050C2D
:104D600003450C00EFF0FFF07DF95286DE85628589
:104D7000EFE07FD611E9639C0C00529CE28C034566
:104D80000C00EFF01FEF5DE9014463850C003384F4
:104D90008C410A0483470C00130700056387E70072
:104DA00013060007E28C6390C70683471C001307B5
:104DB000B002638BE7081307D002638BE708930CFC
:104DC0001C00014D03C50C00EFF0BFEA9307F5FF8F
:104DD00093F7F70FE14563E4F508930705FF850CAA
:104DE00003C50C003ECAEFF0DFE89305F5FF93F52D
:104DF000F50F6148D247A948637EB80463040D00EB
:104E0000B307F0403E9423A09D01638C0904A247A0
:104E1000814491E39944F640664426854649D64448
:104E2000B649264A964A064BF25B625CD25C425D0A
:104E3000B25D256182808149814C31BF050C81B70B
:104E4000268C01448549B9B7014D930C2C009DBFB8
:104E5000054DE5BFB3871703AA97C11749B7E28C81
:104E60005DB7B3079C40FD1781451D476343F70AB3
:104E700056851123054693094501B3074641AA8D7E
:104E80004E8D8148814C3ECA63E8840913054D006C
:104E900033053541098523209D0123A8AD009314D6
:104EA00055006685F92D832B0900898C63D89B0CEE
:104EB000B3847441A6856E85EF0030602A8A05C9E7
:104EC0001386F4FF935656408A06CE9694420547C1
:104ED0003317C700758F054A19CB6359CA009385EC
:104EE000E4FF6E85EF00705D0D4A11E1094AA68569
:104EF0006E85EFF0BFD0269403278900635F870893
:104F0000EE855685FD2992479304300A23A00700B9
:104F100019B78505858799BF9307FCFF3EC40346F3
:104F2000FCFFC2476309F602930700026397F8008B
:104F300023209D018148110D814C0345FCFF46CC87
:104F4000EFF03FD3E2483D89224333151501B3EC1E
:104F5000AC00910815A052479307FCFF3383E7008C
:104F6000E36493FC1A855286DE8546CE1ACCEFE0C8
:104F70009FB66243F2484DF91A8C39B7014AE3DD16
:104F800074F7B3849B40EE8526865685EF00500C5F
:104F9000AA8D058C9309450185B703274900635500
:104FA000E40E33048740634574070327C90089462C
:104FB000630AD7048D46630AD7048546631BD7026C
:104FC00063998B026391EB0203274900B247930474
:104FD000200698C30547924723A8ED0023A0E900C7
:104FE00023A0B7010DBD9385FBFF6E85EF00F04C4C
:104FF00061FDEE855685312192479304000523A07B
:10500000070011BDE3170BFEC1B7E31F0BFAD5B7BD
:105010009304F4FF63180A0691C4A6856E85EF0019
:10502000D0492A8A13D754400A074E97184385451A
:10503000B3959500F98D99C1136A2A00A2856E85F2
:10504000B38B8B40EFF09FBB032449008944630B73
:105050000A080327C9008946630AD7028D46630AF6
:10506000D7028546631DD70013772A0009CB03A713
:105070000900336AEA00137A1A00631E0A0093E4F7
:1050800004018DA0054A79BF8544D1B70547330B8C
:105090006741E3060BFE83A90D0113874D01FD5502
:1050A000139A29003306470114436383B604850627
:1050B00014C3894613874D016394D40883260900DD
:1050C000FD16639F760193D65B408A063697184398
:1050D0008546B39B7601B3FBEB0063830B008544ED
:1050E00093E40402924723A0B701B24780C325B3DB
:1050F0001107232E07FEE369C7FA03A78D0063C5D6
:10510000E90283A54D0056858505B52403A60D014A
:105110009385CD002A8B09060A063105EFE0CFE51D
:10512000EE855685F92CDA8D03A70D01930617003D
:1051300011070A0723A8DD006E97854654C395BF63
:1051400083A60D0163DCD90085456E85EFF01FABAA
:10515000032789000504E35487F85DB393FBFB0143
:105160008544E38F0BF652970325C7FF19291307D0
:105170000002B30B7741E34975FD9DB7A147338624
:10518000C7400A0693060002918E5C411841110542
:105190003398D70033670701B3D7C700232EE5FE46
:1051A0001CC1E364B5FE82801C416548850503C6C9
:1051B000F5FF850701E61CC105458280982393060B
:1051C000F7FB93F6F60F6364D80013070702E30FAB
:1051D000C7FC014582805D7152DC03AA0500A6C2AE
:1051E0004EDE93545A405AD88A0486C6A2C4CAC016
:1051F00056DA5ED662D466D26AD06ECE137AFA01DF
:105200002A8BB289B29463030A00910483270B00AE
:105210001389C4FF23AE04FECA8D4A840146814A25
:10522000814B214C930C00021D4D943313871700C2
:105230003AC0B1CA368532C63EC436C2EFF07FA34B
:10524000324659E59246A24763E8DC0263D47A030A
:105250006378B4016346CD00EE852285EFF01FF23E
:10526000214663F98900930DC4FF232E04FEDE8AD4
:105270006E840146824755BF93059002639CB60831
:1052800089072320FB0063870B086379B4019D47DE
:1052900063C6C700EE852285EFF05FEE63FA8904EE
:1052A000CE8711040327C4FF910723AEE7FEE37AFC
:1052B00089FE910723AE07FEE37DF9FE83270900EF
:1052C00091E76317390585472320F9001545A1A00B
:1052D0000506850B6358CC00E3FE89F8232E04FEF7
:1052E000054671141C403D899207C98F1CC059B7EF
:1052F000E3060AFC93070002B38747417D5AB35780
:10530000FA0003AAC4FF337AFA0023AE44FF7DB744
:1053100071196DB71145B640264496440649F259B5
:10532000625AD25A425BB25B225C925C025DF24DE1
:10533000616182800325C50E82801305050F82807E
:1053400091ED41116C00014501CA795591C61C22AD
:105350009CC108223335A00041018280014509CA61
:10536000795599C61C229CC108223335A000828041
:105370008280828082805C51411122C44AC006C66C
:1053800026C22A842E8989EF4145EFE0AFBD48D07F
:1053900023220500232405002320050023260500E1
:1053A0004450DC449DC75850931729005847BA977A
:1053B000884329E18544B3942401138654000A06E6
:1053C00085452285EFE06FC619CD2322250104C54E
:1053D00025A01306100291452285EFE00FC55C5011
:1053E000C8C4DC47E9F30145B24022449244024973
:1053F00041018280184198C3232805002326050017
:10540000E5B75C51011122CC06CE2A8499EF4145C3
:105410002EC6EFE02FB5B24548D023220500232445
:105420000500232005002326050091C95450DC41C6
:1054300013972700DC46BA97984398C18CC3F24073
:1054400062440561828079714ECEAA89416522D479
:1054500026D22E84844906D64AD0D10501487D152E
:105460009C419105050833F7A7003307C702C183A4
:10547000B387C702369793560701698FB69793D6BD
:105480000701C207BA9723AEF5FEE34B98FCA1C211
:105490001C4463C7F4024C404E8536C68505EFF0C8
:1054A0009FED10489305C4002A8909060A063105B4
:1054B000EFE08FACA2854E85EFF0BFF4B2464A8490
:1054C000938744008A07A297D4C3850404C8228521
:1054D000B250225492540259F24945618280797146
:1054E0009387860052CC368AA54622D426D24ECE49
:1054F0002E84B3C7D70206D64AD056CAAA89B28428
:105500008546814563CCF6044E853AC6EFF0BFE68A
:10551000324785471CC958C9A54763D49704930AE5
:1055200094005689269405098346F9FFAA852946E1
:10553000938606FD4E85EFF01FF1E31689FE138476
:1055400084FF5694268963414903B25022549254F1
:105550000259F249624AD24A45618280860685052F
:1055600055B72904A544F9BFB3079940A2979423DE
:10557000AA852946938606FD4E85EFF0DFEC0509E6
:10558000D9B74177698FAA87014519E3C207414519
:10559000370700FF7D8F19E32105A207370700F0C9
:1055A0007D8F19E311059207370700C07D8F19E33E
:1055B00009058A0763C907001397170005056344A7
:1055C00007001305000282801C4113F777000DC30A
:1055D00093F61700014799E613F7270011C7858353
:1055E0001CC105473A85828089831CC10947DDBFFC
:1055F00093960701C182014799E2C183414793F61F
:10560000F70F99E22107A18393F6F70099E21107BA
:10561000918393F6370099E20907898393F617007F
:1056200081E68583050799C31CC16DBF130700027E
:1056300055BF411122C42E84854506C6EFF0BFD365
:1056400040C9B2402244054718C9410182809849A7
:105650001C4A797126D206D622D44AD04ECEAE84C8
:105660006354F700B2842E8683A90401032906013E
:105670009C44CC403384290163D38700850532C61E
:10568000EFF07FCF324613084501131324004293F5
:10569000C28763ED67029385440193982900510600
:1056A000131E2900C166AE98329EFD166364C603C0
:1056B00063568000711383270300F1CB00C9B250F9
:1056C000225492540259F2494561828023A0070076
:1056D0009107C1B7832F0600B3FFDF00638A0F0471
:1056E000428FAE82814403A7020083230F00110F73
:1056F000B37ED700B38EFE03B3F7D30093D3030179
:105700009102BE9E93570701B387F703A69E13D756
:105710000E01B3FEDE009E97BA9793D40701C2072D
:10572000B3E7D701232EFFFEE3EF12FB23209F00F8
:1057300083522600638A020483270800C28E2E8FBC
:10574000814F03270F0083D32E00F58F758F33070A
:105750005702910E110F1E977E97931F0701B3E713
:10576000FF0023AEFEFE8357EFFF83AF0E004183A1
:10577000B3875702B3FFDF00FE97BA9793DF0701A5
:10578000E3611FFD23A0FE001106110805B77D147B
:1057900005B7011126CA4AC84EC606CE22CC52C44D
:1057A000937736002A89B284AE8989CFFD171747CF
:1057B0000000130727DA8A07BA9790438146EFF073
:1057C0009FC8AA898984A5CC8327490291EF4145C6
:1057D000EFD05FF92322A90223220500232405002C
:1057E0002320050023260500032A490203248A00FA
:1057F00019E8930510274A85EFF0BFE32324AA0098
:105800002A842320050093F7140081CFCE852286B9
:105810004A85EFF0DFE32A8ACE854A85EFF07FBE26
:10582000D289858489CC084009E92286A2854A85E7
:10583000EFF0FFE108C0232005002A84E9B7F24019
:1058400062444E85D2444249B249224A056182806F
:10585000797126D2AE844ECE83A9040122D4CC41E4
:10586000135456409C44A2994AD056CA06D652CCEC
:10587000AA8A1389190063C42709568532C6EFF036
:105880009FAF3246930745012A8ABE86014791069B
:10589000634A870663530400014494480A0433872B
:1058A00087008A06938744017D8ABE9625C2130825
:1058B00000023308C840814588431107910733151A
:1058C000C500C98D232EB7FE83A5C7FFB3D505013B
:1058D000E3E4D7FE0CC399C1138929007D1923285D
:1058E0002A015685A685EFF0DFB1B25022545285C9
:1058F00092540259F249624AD24A45618280850532
:10590000860795BF23AE06FE050751B7910703A68C
:10591000C7FF1107232EC7FEE3EAD7FEC1B71C4914
:105920009849998F8DE30A075105D105B306E50023
:10593000BA95F116F115904298416308E600FD57BB
:105940006363E60085473E858280E364D5FEE5BF5C
:10595000011126CAAE844EC6B285AA89268522CCFC
:1059600006CE4AC83284EFF09FFB05E181454E85A3
:10597000EFF07FA085471CC9232A0500F24062444E
:10598000D2444249B2490561828005496346050017
:10599000A28701492684BE844C404E85EFF0BF9D0E
:1059A0000323040183A8040113064401131E2300EA
:1059B000138844018A08C16E23262501329EC298AD
:1059C00093064501014FFD1E1842832F08009106E2
:1059D000B375D701B3F7DF01FA959D8D93DF0F0102
:1059E00093570701B387F74113D70541BA9713DFE0
:1059F0000741B3F5D501C207CD8F110823AEF6FEDE
:105A00001106E36318FDC165FD156368C601F11653
:105A10009C4295C72328650095B71C429106110644
:105A200033F7B7007A9713580741C183C29713DF42
:105A300007416D8FC207D98F23AEF6FEF9B77D13EC
:105A4000F9B7B707F07FFD8DB707C0FCBE9563556A
:105A5000B00081473E858280B305B04093D7454171
:105A60004D476347F700B7050800B3D5F540D5B7F4
:105A70001387C7FEF94681458547E3CDE6FCB707A6
:105A80000080B3D7E700F9B7797126D204494ECE2A
:105A9000930945018A04CE9422D403A4C4FF4AD0BA
:105AA0002EC6228506D6EFF0DFADB2459307000281
:105AB000898F9CC1A9471389C4FF63CDA702AD4755
:105AC000898F3707F03FB356F400D98E014763F44E
:105AD000290103A784FF55053315A400B357F70028
